:1000000002220B0200063232323232022E453232E6
:0100100032BD
:03001300022B4C71
:03001B00022E12A0
:03002300022D9D0E
:03002B00020007C9
:03003300020008C0
:03003B00022D0B88
:03004300020009AF
:03004B00022DDAA9
:0300530002233D48
:03005B0002000A96
:03006300022D3239
:03006B0002000E82
:0300730002000F79
:10007B0002001002039FE86480F8E933E833601153
:10008B000460F0ED33EC337009E8FCE9FDEAFEEBBC
:10009B00FF220460DED3EB9FEA9EE99DE8C2E78C6A
:1000AB00F0C2F795F0400CE8CCF8E9CDF9EACEFABE
:1000BB00EBCFFB12036A85D0F05804700320D5B345
:1000CB00E80470075002B2D50203A992D5EC046084
:1000DB00F7E4CCC0E0C398F8603B94186008400D7F
:1000EB00D0E0FB020381E4FBFAC9FC8028E830E492
:1000FB0006E4C9FBE4CAFCE830E305E4C9CACBFC5F
:10010B00E854076010F8C3E913F9EA13FAEB13FB91
:10011B00EC13FCD8F130F52FC3E49CFCEF9BFFEE06
:10012B009AFEED99FDD0E0FBEF4E4D4C701222DBA9
:10013B00030203A6EC2CFCEF33FFEE33FEED33FD95
:10014B00ED30E7EB020381EF2BFFEE3AFEED39FDCD
:10015B00D0E0FB50130BBB00030203A9ED13FDEE24
:10016B0013FEEF13FFEC13FC020381EC4D6011E85F
:10017B00497017ED33EC3304600DE4FCFFFEFD22F8
:10018B00E933E8330470F802039F12036A580460E2
:10019B0009E4CC248150062850090203A928400306
:1001AB000203A6C0E0EB4A7044B98006D0E0FB0224
:1001BB000395EF4E701CBD8008EBFFEAFEE9FD8056
:1001CB00EBE98DF0A4FEE5F002025FE9CDF9EAFE62
:1001DB00EBFFEF89F0A4FCE5F0CE89F0A42EFFE451
:1001EB0035F0CD89F0A42DFEE435F08067EF4E702D
:1001FB0005BD80D780C3EF8BF0A4ACF0EE8BF0A4E1
:10020B002CFCE435F0F8EF8AF0A42CE5F038FCE494
:10021B0033CB8DF0A42CFCE5F03BF8EE8AF0A42C4C
:10022B00FCE5F038F8E433CF89F0A42CFCE5F0388A
:10023B00CF3400CE89F0A42FFFE5F03EFEE433C9A6
:10024B008DF0A42EFEE5F039CD8AF0A42FFFE5F05A
:10025B003EFEE43DFD33D0E0FB50070BBB000F022D
:10026B0003A9EC2CFCEF33FFEE33FEED33FD020361
:10027B008174F8CC6480CCC86480C8F58204604F6C
:10028B00C3EB9FF5F0EA9E42F0E99D42F0E89C45F6
:10029B00F0603C501DE5825FFFE582D313CB5BCB57
:1002AB00F42B5582FB50280ABA002409B900200808
:1002BB00801DE5825BFBE582D313CF5FCFF4C313C5
:1002CB002F5582FF50090EBE00050DBD00010CC35A
:1002DB00EB9FF5F0EA9E42F0E99D42F0E89C45F079
:1002EB006007CC4820E701B3EC2275F020800E7537
:1002FB00F010800575F0087D007E007F003392D5ED
:10030B0030D503120576EC334010EF33FFEE33FE9E
:10031B00ED33FDEC33FCD5F0ED22E5F0247EA2D5D8
:10032B0013CC92E7CDCEFF22EDD2E7CD33EC339257
:10033B00D524814006E4FFFEFDFC22FCE4CFCECDAC
:10034B00CC24E0501174FF80EDC3CC13CCCD13CD76
:10035B00CE13CECF13CF0470F030D5DE020576E985
:10036B00D2E7C933E833F892D5EDD2E7CD33EC338E
:10037B00FC5002B2D522EC30E7100FBF000C0EBEC2
:10038B0000080DBD00040BEB6014A2D5EB13FCEDC4
:10039B0092E7FD2274FFFCFDFEFF22E480F8A2D55C
:1003AB0074FF13FC7D80E480EFEF8DF0A4A8F0CFF9
:1003BB008CF0A428CE8DF0A42EFE22BC000BBE0028
:1003CB0029EF8DF084FFADF022E4CCF875F008EF47
:1003DB002FFFEE33FEEC33FCEE9DEC984005FCEE6C
:1003EB009DFE0FD5F0E9E4CEFD22EDF8F5F0EE849D
:1003FB0020D21CFEADF075F008EF2FFFED33FD4062
:10040B0007985006D5F0F222C398FD0FD5F0EA22DB
:10041B00C2D5EC30E709B2D5E4C39DFDE49CFCEEFC
:10042B0030E715B2D5E4C39FFFE49EFE1203C6C3AB
:10043B00E49DFDE49CFC80031203C630D507C3E4A6
:10044B009FFFE49EFE22C5F0F8A3E028F0C5F0F86C
:10045B00E582158270021583E038F022A3F8E0C51F
:10046B00F025F0F0E582158270021583E0C838F0B4
:10047B00E822BB010A89828A83E0F5F0A3E02250CF
:10048B000687F009E71922BBFE07E3F5F009E3192C
:10049B002289828A83E493F5F07401932275F00824
:1004AB00758200EF2FFFEE33FECD33CDCC33CCC5B1
:1004BB008233C5829BED9AEC99E58298400CF582CC
:1004CB00EE9BFEED9AFDEC99FC0FD5F0D6E4CEFB3E
:1004DB00E4CDFAE4CCF9A88222B800C1B90059BA2C
:1004EB00002DEC8BF084CFCECDFCE5F0CBF978185A
:1004FB00EF2FFFEE33FEED33FDEC33FCEB33FB1054
:10050B00D703994004EB99FB0FD8E5E4F9FA22786D
:10051B0018EF2FFFEE33FEED33FDEC33FCC933C97F
:10052B0010D7059BE99A4007EC9BFCE99AF90FD889
:10053B00E0E4C9FAE4CCFB2275F010EF2FFFEE33A9
:10054B00FEED33FDCC33CCC833C810D7079BEC9AE8
:10055B00E899400AED9BFDEC9AFCE899F80FD5F071
:10056B00DAE4CDFBE4CCFAE4C8F922C3E49FFFE460
:10057B009EFEE49DFDE49CFC22EB9FF5F0EA9E427F
:10058B00F0E99D42F0EC6480C864809845F022E865
:10059B00600FECC313FCED13FDEE13FEEF13FFD84E
:1005AB00F122E86010ECA2E713FCED13FDEE13FE55
:1005BB00EF13FFD8F022ECF0A3EDF0A3EEF0A3EFD6
:1005CB00F022A8828583F0D083D0821205E4120535
:1005DB00E41205E41205E4E473E493A3C583C5F0C8
:1005EB00C583C8C582C8F0A3C583C5F0C583C8C57C
:1005FB0082C822EC8EF0A4CCC5F0CCCDF8EFA4CE03
:10060B00C5F02DFDE43CFCE8A42EC8C5F03DFDE48F
:10061B003CFCEFA4FFE5F028FEE43DFDE43CFC22AE
:10062B00EF4E6012EF60010EEDBB010B89828A83E6
:10063B00F0A3DFFCDEFA2289F05007F709DFFCA9F3
:10064B00F022BBFEFCF309DFFCA9F022E5096407ED
:10065B006003020B57C3900095E094B0900094E0B8
:10066B009404501DA3E004F07006900094E004F095
:10067B00E49000C9F09000C0F0A3F0900198020B39
:10068B00779000A3E024FE600F14602824027046CC
:10069B009000937401F0803E121FF1600D047036D0
:1006AB00741A121FC47435F0802C7426121FC47474
:1006BB0036F08022121FF1601104701A90009174B1
:1006CB0044F090007D7464F0800C900091745DF0A8
:1006DB0090007D7469F09000B4121FCF94F0EE94EB
:1006EB000F5008EF9496EE94005027900066E47537
:1006FB00F001120451FEC3E5F094F4EE9401401D99
:10070B009000667401F0A374F4F09000407401F053
:10071B00800BE4900066F0A3F0900040F090009303
:10072B00E06003020B809000BDE06003020B809041
:10073B0000D0E06003020B80900040E06003020BEE
:10074B00809000C1E004F070069000C0E004F0D38C
:10075B009000C1E094E89000C0E0940350030209BC
:10076B00DEE4F0A3F090000A121FDD4002E4F090EB
:10077B0000B4121FFC94AAEE940E40030208BDEFC6
:10078B0094C5EE940C401B9000B4E0FCA3E0FD90EC
:10079B0001AA740EF0A374AAF07BC57A0C7F320207
:1007AB0008A9121F7A94E0EC940940139001AA74E3
:1007BB000CF0A374C5F07BE07A097F4B0208A912F9
:1007CB001F7A94A7EC940640139001AA7409F0A326
:1007DB0074E0F07BA77A067F640208A9121F7A9453
:1007EB0017EC940440139001AA7406F0A374A7F0BD
:1007FB007B177A047F7D0208A9121F7A9469EC9407
:10080B000240139001AA7404F0A37417F07B697A69
:10081B00027F960208A9121F7A9492EC940140125F
:10082B009001AA7402F0A37469F07B927A017FAAFB
:10083B00806C121F7A9408EC940140129001AA74F8
:10084B0001F0A37492F07B087A017FBE8050121FD7
:10085B007A94AFEC940040129001AA7401F0A37447
:10086B0008F07BAF7A007FD28034121F7A9476EC3B
:10087B00940040119001AAE4F0A374AFF07B767A58
:10088B00007FE68019121F7A9451EC9400401B9064
:10089B0001AAE4F0A37476F07B517A007FFA7E0014
:1008AB00122BF490009EEFF0800E90009E74FAF0E5
:1008BB00800690009E7419F09000A3E0FF70030275
:1008CB0009D99000B8E0FE9000B2F090009EE0FDD8
:1008DB009000B8F0D39E4007E49000CBF0801890C6
:1008EB0000B2E0FE9000B8E0C39E9000CB500574C0
:1008FB0001F080037402F0900078E06401706CEFFB
:10090B006403706790007DE0FFEDC39F502C900057
:10091B009EE0FEC3EF9EFFC3940540099000C9748F
:10092B0002F00209BBEFC39402403912200A6003A4
:10093B000209BB9000C904F08076121F9F4025EE80
:10094B009FFFC3940540089000C974FEF08061EFCF
:10095B00C39402400D12200A70569000C974FFF028
:10096B00804E8000E49000C9F0804512200A704050
:10097B00C3121FA0501B9000CBE06034C3EF9EC38B
:10098B00940C9000C9E040052405F0802304F0800E
:10099B001F121F9F401A9000CBE064016012EE9F64
:1009AB00C3940C9000C9E0400524FBF0800214F0C6
:1009BB009000C9E0C36480946C500374ECF0900019
:1009CB00C9E0D364809492400A7412F08005E490DD
:1009DB0000C9F09000C9E0FF3395E0FE900091E074
:1009EB00FD3395E0FCED2FFFEC3EFE90000BE0FDA0
:1009FB003395E0FCEF2DFFEE3CFE9000A1F0A3EF52
:100A0B00F0ED2460FDE43CFCD3EF9DEC6480F8EE4C
:100A1B00648098400A9000A1ECF0A3EDF0800FC326
:100A2B009000A1E0648094805004E4F0A3F0900067
:100A3B00A1E0FAA3E0FB7C007D02FFAE0212041BD7
:100A4B00900035EEF0A3EFF0C3EB9FFFEA9EA3F00F
:100A5B00A3EFF0900035121F909000A4EFF0AF03BE
:100A6B00121F96121FE5900035A3E0FE9000A4E044
:100A7B00FDC3EE9DC39F9000A6F0900037121F9010
:100A8B009000A7EFF07C007D03AF03AE021203C60C
:100A9B00121FE5900037A3E0FE9000A7E0FDC3EE28
:100AAB009DC39F9000A9F0900198E07003020B404A
:100ABB00E4F090008FE030E013A2E713FF9000BC4E
:100ACB00E0B507119000AF7401F08009E49000AF1E
:100ADB00F090008EF09000BCE004F0E0D39407405F
:100AEB0022E4F0900074E004F0E0D394054002E4BB
:100AFB00F0900074E024A4F582E43400F583E090D8
:100B0B00008FF090008FE0FF3395E0FEEF2401FFA4
:100B1B00E43EA2E713EF13FF9000BCE0FEC3EF64CB
:100B2B0080F8EE64809850089000A07401F0800566
:100B3B00E49000A0F09000AFE0603A90008E121F9E
:100B4B00DD4032E4F09000AFF0D28722D287E49000
:100B5B000094F0A3F09000B9F0A3F09000A0F090F7
:100B6B0000BCF09000C0F0A3F09000C9F09000AF73
:100B7B00F090008EF022E4FF90030C122003C3339D
:100B8B00CE33CED8F9FF900184E0FCA3E0FD7B1EB1
:100B9B00122C28900184EEF0A3EFF09000C4121FEA
:100BAB006E90030EE0FEA3E0FFE4FCFDEB2FFFEAEB
:100BBB003EFEED39FDEC38FC9000C41205C19000EF
:100BCB0075E004F0E0C3940A402B9000C4121F5F41
:100BDB00780112059AE47B05FAF9F81204E4900007
:100BEB00B4EEF0A3EFF09000C41205CD00000000AE
:100BFB00E4900075F0900304122003C333CE33CE80
:100C0B00D8F9FF90001AEEF0A3EFF0900316122024
:100C1B0003C333CE33CED8F9FF90001CE0FCA3E026
:100C2B00FD7B0A122C2890001CEEF0A3EFF0900035
:100C3B0069E0FEA3E0FF90001A121F7D9FEC9E401F
:100C4B0008900069ECF0A3EDF090005EE004F0D3A7
:100C5B00940F5003020F16E4F0900062121F6E9077
:100C6B000069E0FEA3E0FFE4FCFDEB2FFFEA3EFE94
:100C7B00ED39FDEC38FC9000621205C1900034E0B8
:100C8B0004F0C394105003020F0F900062121F5F09
:100C9B00780412059A900056EEF0FAA3EFF0FB9051
:100CAB0000621205CD00000000E4900034F0D3EB9D
:100CBB0094A8EA9461400990000B74DFF0020F0FC7
:100CCB00900056121FFC94B4EE945F404ED3EF94F9
:100CDB0044EE9461400990000B74E0F0020F0FD3C7
:100CEB00EF94E0EE9460400990000B74E1F0020F7A
:100CFB000FD3EF947CEE9460400990000B74E2F0FC
:100D0B00020F0FD3EF9418EE946090000B40067413
:100D1B00E3F0020F0F74E4F0020F0FD3EF94C0EE69
:100D2B00945D404ED3EF9450EE945F400990000BCE
:100D3B0074E5F0020F0FD3EF94ECEE945E40099044
:100D4B00000B74E6F0020F0FD3EF9488EE945E4025
:100D5B000990000B74E7F0020F0FD3EF9424EE947D
:100D6B005E90000B400674E8F0020F0F74E9F0027E
:100D7B000F0FD3EF94CCEE945B4048D3EF945CEE23
:100D8B00945D400990000B74EAF0020F0FD3EF94BF
:100D9B00F8EE945C400990000B74EBF0020F0FD34C
:100DAB00EF9494EE945C400990000B74ECF0020FFE
:100DBB000FD3EF9430EE945C90000B401B74EDF06E
:100DCB00020F0FD3EF94D8EE9459404AD3EF9468A7
:100DDB00EE945B400990000B74EEF0020F0FD3EF13
:100DEB009404EE945B400990000B74EFF0020F0F2C
:100DFB00D3EF94A0EE945A400590000B800CD3EFE8
:100E0B00943CEE945A90000B400674F0F0020F0FD6
:100E1B0074F1F0020F0FD3EF94E4EE945740099066
:100E2B00000B74F2F0020F0FD3EF94F0EE945540D9
:100E3B004ED3EF9480EE9457400990000B74F3F06F
:100E4B00020F0FD3EF941CEE9457400990000B74D4
:100E5B00F4F0020F0FD3EF94B8EE945640099000C4
:100E6B000B74F5F0020F0FD3EF9454EE94569000E1
:100E7B000B400674F7F0020F0F74F8F0020F0FD34C
:100E8B00EF94FCEE9453404BD3EF948CEE9455407F
:100E9B000890000B74F9F0806BD3EF9428EE945507
:100EAB00400890000B74FBF0805AD3EF94C4EE947F
:100EBB0054400890000B74FDF08049D3EF9460EE22
:100ECB009454400890000B74FEF08038E490000BB3
:100EDB00F08031D3EF9408EE9452400890000B74DD
:100EEB0001F08020D3EF9414EE94504011D3EF9483
:100EFB00DCEE945090000B40087402F080069000DA
:100F0B000B7403F0E4900069F0A3F01212EE1227B9
:100F1B00F4122782022F1801080048018F000000ED
:100F2B000000000000410197004101980041018E33
:100F3B00004100680041006100C1004200690000EF
:100F4B0044006200000000420056000041005E00B9
:100F5B004100340041000B00410000004100010042
:100F6B004100020041000300410004004100050064
:100F7B004100060041000700420008000042005FEC
:100F8B0000004100400042006600004200350000B6
:100F9B00420037000041000A004100980041009ACE
:100FAB000041009D004100990041009C004100AEB2
:100FBB0000410092004100C30041006C0041007AE7
:100FCB00004100900041006D004100AA004100B3B8
:100FDB00004100C20041006B0041007800410097C6
:100FEB00004100A30041009F004100BB004100A055
:100FFB0000410091004200A100004100CE004100E1
:10100B008F004100AD004100BC0042009400004243
:10101B0000AB0000410096004400C40000000042F9
:10102B0000B400004100750041009E0041009B0090
:10103B004100BD00420072000041007D004200C033
:10104B0000004100C9004100B2004100B80041005E
:10105B00CB004100CF004200CC00004100B6004263
:10106B0000B000004200BE00004200B90000410089
:10107B00B70042006E00004100930041007900412F
:10108B0000C8004100700042007B00004200760067
:10109B00004100AF0041008E004600A4000000009C
:1010AB000000410074004100CA004100710046017C
:1010BB002C37A5354431CE460126239C21051E989D
:1010CB0046013D154513A9122C4101480041014928
:1010DB000041014A0041014B00410124004101251F
:1010EB000041013C004100E900410123004100DDCA
:1010FB000042012100004100D0004200E700004205
:10110B00011F00004200D1000041011E0041019966
:10111B000045019F000000000000E5096407600323
:10112B000212A7C3900105E094F4900104E094012E
:10113B00500FA3E004F07006900104E004F00212DB
:10114B00A79040DAE0FFA3E09000D7CFF0A3EFF039
:10115B009040DCE0FFA3E09000D9CFF0A3EFF0903C
:10116B0040DEE0FFA3E09000DBCFF0A3EFF09000B8
:10117B00D91222B09000D71222FF50089000DB1238
:10118B0022CA401FD39000D8E094069000D7E09479
:10119B00014010900107E004F07006900106E00496
:1011AB00F0801BD3900107E09400900106E09400BF
:1011BB00400CA3E024FFF0900106E034FFF0122274
:1011CB00ADA31222FF5006A31222CA401FD39000D8
:1011DB00DAE094069000D9E094014010900109E008
:1011EB0004F07006900108E004F0801BD390010915
:1011FB00E09400900108E09400400CA3E024FFF081
:10120B00900108E034FFF01222AD9000DB1222FFB8
:10121B0050089000D91222CA401FD39000DCE094F2
:10122B00069000DBE09401401090010BE004F0709D
:10123B000690010AE004F0801BD390010BE09400B0
:10124B0090010AE09400400CA3E024FFF090010A07
:10125B00E034FFF09000D71222D8A3F0A3F0904017
:10126B00EEE04480F0D3900107E09432900106E069
:10127B009400501C900109E09432900108E0940016
:10128B00500E90010BE0943290010AE09400400C58
:10129B009000E2E004F09000D37405F09000D3E0EE
:1012AB0064057037E509B409329000E2E0C394029B
:1012BB00502990010DE004F0700690010CE004F051
:1012CB00C390010DE094D090010CE0940740139073
:1012DB0001061222D8A31222A6F022E490010CF0F0
:1012EB00A3F022E509B4072790001AE0FEA3E0FF64
:1012FB00A3E0FCA3E0FD122E5C90001FEEF0A3EF29
:10130B00F0A37B0A12149C900021EEF0A3EFF0E502
:10131B000964016033E509602F9040D4E0FEA3E03F
:10132B00FF9000277B3212149C900027EEF0A3EF66
:10133B00F09040E0E0FEA3E09000291214909000A2
:10134B0029EEF0A3EFF08007E4900027F0A3F090D4
:10135B0040BAE0FEA3E090002B12149090002BEE0D
:10136B00F0A3EFF09040B8E0FEA3E0FF90002DE07B
:10137B00FCA3E0FD7B0A122C2890002DEEF0A3EFCE
:10138B00F0E50964076009E5096408600302148F3E
:10139B0090001EE014607904600302148FD3900058
:1013AB0028E094B0900027E06480948540479040FB
:1013BB00AD7404F0904090E4F0A3F090001E04F0A4
:1013CB009040947419F0A37498F0A3743FF0A37435
:1013DB00FFF0900027121F8790000E1205C190009E
:1013EB00121205CD429A00009000161205CD410055
:1013FB0000000223D1904092E0FEA3E0C3941EEEC6
:10140B0064809485507E904092E475F00302045101
:10141B00900030E004F0700690002FE004F0C390D1
:10142B000030E0940190002FE09400405790005062
:10143B00E0FEA3E0FF12216B900052EEF0A3EFF061
:10144B00E490002FF0A3F0900027121FFC9476EE8F
:10145B006480949540079040A1E04420F0C3900035
:10146B0053E09FFF900052E09EFE900047F0A3EFE9
:10147B00F0122E2C900045EEF0A3EFF0904092EE80
:10148B00F0A3EFF022FFE0FCA3E0FD7B0A122C2877
:10149B0022E0FCA3E0FD122C28229000D3E0600395
:1014AB0002157D90001A12231E94EEEE945F4031CC
:1014BB009000EBE004F070069000EAE004F0D390AB
:1014CB0000EBE0942C9000EAE09401402FE4F0A3B1
:1014DB00F09000D004122312E49000F3F0A3F080FC
:1014EB001BD39000EBE094009000EAE09400400CDA
:1014FB00A3E024FFF09000EAE034FFF0C3EF944840
:10150B00EE943B4005122325504D9000EDE004F086
:10151B0070069000ECE004F0D39000EDE0941E9088
:10152B0000ECE09400404B1222A57403F01223252B
:10153B00501590011E7401F09000F004F0A3745844
:10154B00F0A37401F08007E490011E122312E490C3
:10155B0000F3F0A3F0801BD39000EDE0940090001B
:10156B00ECE09400400CA3E024FFF09000ECE0349E
:10157B00FFF09000D0E060269000E7E475F00112D8
:10158B000451FED3E5F094E8EE94034011E490008F
:10159B00E7F0A3F09000D0F09000D37404F0E509CD
:1015AB00640960030216539000D3E0FF64036008E4
:1015BB00EF6404600302165390001A12232C941547
:1015CB00EE9462503DEF940FEE944640359000E55B
:1015DB00E094FF502D12232540289000EFE004F0FB
:1015EB0070069000EEE004F0D39000EFE09496903C
:1015FB0000EEE094004051E49000BDF09000D3F079
:10160B0080409000D3E0FF64036004EFB404321217
:10161B0022BC400CA3E024FFF09000F0E034FFF07C
:10162B0090405EE0FEA3E0FFC39000F4E09F9000CB
:10163B00F3E09E500CA3E02405F09000F3E034009F
:10164B00F0E49000EEF0A3F022E5096407600302DA
:10165B00177ED3900117E09420900116E09403506D
:10166B0039A3E004F07006900116E004F0D390006B
:10167B0028E09438900027E0648094CE401C9000C2
:10168B002AE09488900029E09413500EE490011600
:10169B001222A61222F5A37401F0D3900111E0944B
:1016AB00E8900110E09403400302174AA3E004F012
:1016BB007006900110E004F0900113E004F0700646
:1016CB00900112E004F0C3900113E094909001128A
:1016DB00E0940140717401F0A37490F090002AE043
:1016EB009498900029E09408503890010FE004F092
:1016FB00700690010EE004F0C390010FE094289067
:10170B00010EE09400403F9000D31222F5E49001CB
:10171B0012F0A3F090010EF0A3F09000DF7402F032
:10172B008024D390010FE0940090010EE0940040D0
:10173B0015A3E024FFF090010EE034FFF08007E4E6
:10174B0090010EF0A3F090001EE07027900115E0C1
:10175B0004F07006900114E004F0C3900115E094BE
:10176B00D0900114E09407400A1222A51222F5A38F
:10177B007403F09000D3E0B4072FE509B4092A9065
:10178B0000DEE0D394055021900119E004F07006BF
:10179B00900118E004F0D3900119E094C89001185F
:1017AB00E0940040041222A5F022E50964076003CF
:1017BB000218A1D39000FBE094F49000FAE094019E
:1017CB00500FA3E004F070069000FAE004F002184A
:1017DB00A190002912232C9460EE9409401990409B
:1017EB00D4E0FCA3E0D3941CEC64809487402FEFEF
:1017FB0094ACEE940D50279000FDE004F070069031
:10180B0000FCE004F0C39000FDE094329000FCE09B
:10181B00940040251222A51222E104F0801BD390E4
:10182B0000FDE094009000FCE09400400CA3E02449
:10183B00FFF09000FCE034FFF090002712232C9473
:10184B00FAEE64809484400BD3EF94A9EE648094F9
:10185B00EA40289000FFE004F070069000FEE004E0
:10186B00F0C39000FFE0943C9000FEE09400402613
:10187B001222A51222E17402F0801BD39000FFE02C
:10188B0094009000FEE09400400CA3E024FFF09045
:10189B0000FEE034FFF09000D3E0B40630E509B46D
:1018AB00092B9000E0E0D394025022900103E00456
:1018BB00F07006900102E004F0C3900103E094E89D
:1018CB00900102E09403400C1222A5F022E4900157
:1018DB0002F0A3F022904062E0547FF0E054DFF07E
:1018EB00E04420F09040EEE04404F09040A0E4F09F
:1018FB00A3F090409012273C9040CCF0A3F0904086
:10190B00AAF0A3F09040A8F0A3F09040ACF0904068
:10191B00AE7407F0A3741CF09040AD7402F09040CD
:10192B00B07426F0A37466F0A374D9F0A3749AF084
:10193B00A3747EF0A374B7F0A37481F0A37449F081
:10194B0090408CE4F0A37472F0A37405F0A3747749
:10195B00F09040887402F0747D122774F0904080F0
:10196B007410F0A3E4F090407EF0A37455F0904017
:10197B007C744BF0A37465F09040A3E4F09040EEC0
:10198B00E04420F09040A1E0547FF0904078746CDC
:10199B00F0A374CBF0A37402F0A3743BF09040A0BF
:1019AB00E04401F090004FE0904062B40106E04447
:1019BB0040F08004E054BFF09040A0E054F3F0906E
:1019CB0040A274D8F09040A5740FF09040A1E05461
:1019DB00DFF053D69F900180E0B401169040A1E058
:1019EB0054F3F0900178E0FFA3E09040A6CFF0A372
:1019FB00EFF0904062E04408F0E04480F022900069
:101A0B00D3E06003750909E509B40C004003021B20
:101A1B002F901A23F8282873021A47021A6C021AFD
:101A2B0087021B2F021AA1021AB0021AC8021ACF80
:101A3B00021AE8021B06021B2F021AEB122E8A90C7
:101A4B000180E064016003021B2F90004DE06401F4
:101A5B006003021B2F750901900180F090017E80BD
:101A6B0078900180E064016003021B2F122F29750F
:101A7B000902900032E4F0A3743CF022121D0C908A
:101A8B000032E07002A3E06003021B2FC2FF750956
:101A9B00049000328043E4900025F0A3F075090513
:101AAB0090003280341229B4900032E07002A3E02F
:101ABB0070727509069040A1E054FDF02212246467
:101ACB007509072290004DE0705A75090890003295
:101ADB00F0A374C8F0904092E4F0A3F022021E9C95
:101AEB00900032E07002A3E0703A90004EF0C2FF1B
:101AFB00904062E054DFF0E4F509229000D3E0FF60
:101B0B0064046004EFB40308121B30122605800333
:101B1B00122F0D9000D3E0700BF50990019EF09001
:101B2B0000B704F02290011EE07003021BB61222D4
:101B3B00BC40769000F3E0FFA3E0904058CFF0A3B9
:101B4B00EFF09000F2E07003021C3E90405CC0830B
:101B5B00C082E0FFA3E054C0D082D083CFF0A3EFCC
:101B6B00F0E49000F2F0904062E054F7F090405CAB
:101B7B00C083C082E0FFA3E04415D082D083122340
:101B8B00334480F0D2FF90405EE0FCA3E0FDE41212
:101B9B0002FA7BCD7ACC794C783D12017612033365
:101BAB00904058EEF0A3EFF022807C9000F01223CF
:101BBB001E942CEE9401400D904092E4F0A3F09013
:101BCB0000F204F022D3EF9464EE940040549000A2
:101BDB00F2E06401705DF0C2FF9040A01223099007
:101BEB00405EE0FEA3E02401FFE43E904058F0A3EA
:101BFB00EFF090405CC083C082E0FFA3E054C0D004
:101C0B0082D083CFF0A3EFF090405CC083C082E022
:101C1B00FFA3E04415D082D08312233354F7F0D2C4
:101C2B00FF221222BC500C9040A0E4122309C2FFE9
:101C3B00E4F5F8229000A3E09000CFF0900000E0D4
:101C4B0004F0E0D394144060E4F0A3E0D3940F408D
:101C5B002A900003E004F0E4900007F0900003E00A
:101C6B00940A403BE4F0900078F090004D04F09023
:101C7B0000507439F0A3743BF08024900002E0D341
:101C8B009407401B900007E004F0E4900003F090F1
:101C9B000007E0940A4008E4F0900078121FB3E4C8
:101CAB00900001F0A3F0800E2093059000018003BB
:101CBB00900002E004F020942CE4900005F09000DA
:101CCB0004E004F0E0C394144036900006E070305A
:101CDB00900004F090000604F09000A3121FDD406A
:101CEB001F7401F022E4900004F0A3E004F0E0C3C1
:101CFB009414400CA3E0B40107E4900005F0A3F0AA
:101D0B00229001B0E020E141E04402F090405CC041
:101D1B0083C082A3E0543FFFD082D083E4F0A3EFD3
:101D2B00F053F8C090405EE0FCA3E0FDE41202FA31
:101D3B007433FBFAF9783F12017612033390405853
:101D4B00EE12275CE4900031F0C3900033E0943C3A
:101D5B0012277B5020900031E0701A04F090405C09
:101D6B00C083C082E0FFA3E04401D082D083CFF0D8
:101D7B00A3EFF0D2FFD3900033E0942812277B50CF
:101D8B0020900031E0B401197402F090405CC083E4
:101D9B00C082E0FFA3E04404D082D083CFF0A3EF56
:101DAB00F0D3900033E0941412277B502090003135
:101DBB00E0B402197403F090405CC083C082E0FF72
:101DCB00A3E04410D082D083CFF0A3EFF022900198
:101DDB0080E06003021E9B904039E04440F090404D
:101DEB0039E020E6F990017AE0F8A3E0F9A3E0FAF4
:101DFB00A3E0FBC000C001C002C003900308E05485
:101E0B000FFEA3E07803C333CE33CED8F9FFE4FC47
:101E1B00FDD003D002D001D000EB2FFFEA3EFEED48
:101E2B0039FDEC38FC90017A1205C190017A12272A
:101E3B006878041205AD900178EEF0A3EFF0A312D1
:101E4B002768C006C007900178E0FEA3E0FBAA0656
:101E5B00EA3395E0F9F8D007D006C3EF9BFFEE9A73
:101E6B00FEED99FDEC98FCA31205C190017FE004F7
:101E7B00F0700690017EE004F0D390017FE094E8CF
:101E8B0090017EE06480948340069001807401F0A1
:101E9B0022900027E0FEA3E0FFC394E3EE6480945E
:101EAB00B8400D900032E07002A3E06003021F40C7
:101EBB00C3EF94E3EE648094B85010122744400BA8
:101ECB0090409274FDF0A374F4F022C31227445097
:101EDB005CC2FF9040A0E4F0904062E054DFF090D1
:101EEB00405EE0FEA3E02401FFE43E904058F0A3E7
:101EFB00EFF090405CC083C082E0FFA3E054C0D001
:101F0B0082D083CFF0A3EFF090405CC083C082E01F
:101F1B00FFA3E04415D082D083CF12275CD2FF758C
:101F2B00090B9000327402F0A37458F02290409287
:101F3B00E4F0A3F02290004DE0D394004012750919
:101F4B0007E490001EF09040927405F0A3741EF00D
:101F5B002290000EE0FCA3E0FDA3E0FEA3E0FF2235
:101F6B0090000EE0F8A3E0F9A3E0FAA3E0FB2290C7
:101F7B0000B4E0FCA3E0FDD32290000CE0FCA3E056
:101F8B00FDEC0202FAE0FAA3E0FBFF7C007D03AE5E
:101F9B00020203C6D390007DE0FF90009EE0FE9FFF
:101FAB0022A3F0A3E4F0A32204F090004DF09000E4
:101FBB00507449F0A374AFF022900091F090007D23
:101FCB0022900032E0FEA3E0FFC322A3F0A3E4F0D3
:101FDB00A322E004F0E0D3940322ECC313ED13FF30
:101FEB00E02FFFA3F022E4900093F0900078E01430
:101FFB0022E0FEA3E0FFD322E0FEA3E078032290D1
:10200B00000AE06403229000D3E0705BC39001856B
:10201B00E0946C900184E09422503190011BE00419
:10202B00F0700690011AE004F0D390011BE094F4D9
:10203B0090011AE09401402F1222D89000E6E004A0
:10204B00F09000D3740BF0122F0D801BD390011B5B
:10205B00E0940090011AE09400400CA3E024FFF000
:10206B0090011AE034FFF09000D3E0640B704790BE
:10207B0000E6E0C39402503E900185E094B09001DD
:10208B0084E0942A402990011DE004F07006900131
:10209B001CE004F0C390011DE094D090011CE0946F
:1020AB00074013E4F0A3F090011A1222A6F022E4E9
:1020BB0090011CF0A3F0229001387404F0A374E299
:1020CB00F0C3900135E09F900134E0940050629092
:1020DB000133E004F07006900132E004F09001321D
:1020EB00E0FEA3E0FFC394FAEE94005011D295D218
:1020FB0096D297ED6401706790014B048017C3EF84
:10210B0094F4EE94015014C295C296C297ED6401FB
:10211B00704D90014BF09001248041E4900132F01E
:10212B00A3F0900135E004F07035900134E004F039
:10213B0022900137E004F07006900136E004F09035
:10214B000138E0FEA3E0FFD3900137E09F9001360A
:10215B00E09E400BE4900134F0A3F0A3F0A3F02237
:10216B0090000CEEF0A3EFF0FDAC06EC1202FA12AD
:10217B001F6B12027C503F900012121F5F121F6BDD
:10218B00120085C004C005C006C007121F84A80436
:10219B00A905AA06AB07D007D006D005D0041202BA
:1021AB007C600E400C121F5CA3121F6E1200858008
:1021BB0042121F84803D900016121F6E121F5C127C
:1021CB000081C004C005C006C007121F84A804A963
:1021DB0005AA06AB07D007D006D005D00412027CA7
:1021EB00500E121F5C900016121F6E12008180039E
:1021FB00121F8490000E1205C1121F5C12033322B2
:10220B0078FEE4F6D8FD9000007FFF7E03E4F0A398
:10221B00DFFCDEFA75815B022260022AD3E493A312
:10222B00F8E493A34003F68001F208DFF48029E47D
:10223B0093A3F85407240CC8C333C4540F4420C8C9
:10224B00834004F456800146F6DFE4800B01020460
:10225B000810204080900F22E47E019360BCA3FF06
:10226B00543F30E509541FFEE493A360010ECF5495
:10227B00C025E060A840B8E493A3FAE493A3F8E484
:10228B0093A3C8C582C8CAC583CAF0A3C8C582C8F0
:10229B00CAC583CADFE9DEE780BEE4F0A3F0900095
:1022AB00D3229000D7E0FEA3E0FF7C007D03020366
:1022BB00B4D39000F1E094009000F0E0940022E0A1
:1022CB00FEA3E0FF1203B4D3EB9FEA9E22E4F0A33C
:1022DB00F0A3F0A3F0227406F09000E0E004F0E429
:1022EB009000FAF0A3F09000E1227407F09000DE6A
:1022FB00E004F022E0FAA3E0FBD39FEA9E22F090E9
:10230B004062E054DFF022F09000F07403F0A3740D
:10231B0020F022E0FEA3E0FFD32290018EE0942375
:10232B0022E0FEA3E0FFC322CFF0A3EFF0904062C8
:10233B00E022C0E0C0F0C083C082C0D075D000C026
:10234B0000C001C002C003C004C005C006C0079096
:10235B004061E030E73D750801904039E04440F0C2
:10236B00D3900033E09400900032E09400400CA333
:10237B00E024FFF0900032E034FFF090018EE0D3C8
:10238B0094004003E014F0122F21904061E04410C0
:10239B00547FF0E59F30E703539F7FE59F30E603C3
:1023AB00539FBFE59F30E503539FDFD007D006D087
:1023BB0005D004D003D002D001D000D0D0D082D031
:1023CB0083D0F0D0E0327E007F0C7D007B017A0061
:1023DB00794112062B90002FE4F0A304F0900041FA
:1023EB007404F074CC121FAC7441F0900049740D5E
:1023FB00F0744F121FAC741AF0900041E0FFA3E091
:10240B009003D0CFF0A3EFF0900043E0FFA3E09058
:10241B0003D6CFF0A3EFF0900049E0FFA3E09003C9
:10242B00DCCFF0A3EFF090004BE0FFA3E09003DED6
:10243B00CFF0A3EFF09003D87405F0A3741EF090C7
:10244B0003D27401F0A374F4F0900394E0FFA3E0C3
:10245B00900390CFF0A3EFF0229001B0E020E46D59
:10246B00E04410F01218E09040CCE4122713904097
:10247B0090E4F0A3F09000237405F0A3741EF09089
:10248B0040947407F0A374FFF0A37401F0A37406D7
:10249B00F09040B4747EF0A374B7F0A3E4F0A3F013
:1024AB0090407412273C904082F0A37414F0A374F4
:1024BB0001F0A3746CF0A37403F0A3748EF090403E
:1024CB00A0E04440F0E054DFF0E04410F090003224
:1024DB00E4F0A37464F0900023E0FFA3E09040923B
:1024EB00CFF0A3EFF0229000B412231E94F2EE94DF
:1024FB00015023E4900072F0A3F090009BE004F0F5
:10250B00E0946440169000BDE0701090009BF0903A
:10251B0000BD04F08005E490009BF09000BDE060EE
:10252B004FD3EF9417EE9404402BE490009BF09064
:10253B000073E004F07006900072E004F0C39000AA
:10254B0073E094D0900072E094074024E4F0A3F081
:10255B009000BDF022D3900073E09400900072E0E5
:10256B009400400CA3E024FFF0900072E034FFF0E5
:10257B00229000DDE07004C29580189000D3E0FF3C
:10258B0070249000A3E024FE600E146012240270ED
:10259B0068D295C296C29722C295D296C29722C292
:1025AB0095C296D29722122BCA5013C295C296C2CD
:1025BB0097A3E004F0704290013AE004F022EF148C
:1025CB00601E14601524FD602314601A24FC602225
:1025DB00240670257D017F02801C7D017F058016FE
:1025EB007D017F0480107D017F03800A7D017F06C2
:1025FB0080047D017F011220C222D39000F1E09470
:10260B00009000F0E09400507290009FE0FF90006B
:10261B00A3E0FE6F6065EE6062E49001A4F09001B0
:10262B009EE07044C2AF900071E0C3948040109064
:10263B00019AE0FEA3E0FF122CE0E4900071F09011
:10264B000071E0FF90019BE02FFF90019AE03400B6
:10265B00FE9000CFE0FD122C8900900071E004F099
:10266B0090019E7401F0D2AF90019EE0600D90003E
:10267B00A3E090009FF0E490019EF0229003D074B1
:10268B0004F0A374CCF09003D6E4F0A37441F09063
:10269B0003DC740DF0A3744FF0A3E4F0A3741AF0F1
:1026AB009003887401F0A37499F090038EE4F0A367
:1026BB007420F0900394747EF0A374B7F0A3744C61
:1026CB00F0A374CCF09003787419F0A37498F09085
:1026DB00037E743FF0A374FFF0900384747EF0A329
:1026EB0074B7F0A37481F0A37449F0900390740D48
:1026FB00F0A3744FF0900380E4F0A3F0227F347BBF
:10270B00017A0079EA02062BF0A3F09040CCE0FEB0
:10271B00A3E02400FFEE34F0A3F0A3EFF022E4904B
:10272B0001B0F0FE7F1AFD7B017A00791A02062BAD
:10273B00E4F0A3F0A3F0A3F022900028E0948D9096
:10274B000027E0648094A3227E007D007B010206BB
:10275B002BF0A3EFF0904062E054F7F022E0FCA3E3
:10276B00E0FDA3E0FEA3E0FF22A3F0A3E4F0A3228D
:10277B00900032E0940022E5096407706B121FCCC5
:10278B009446EE94005061C3EF9432EE94004016E1
:10279B009040A1E054FDF09040747402F074D91293
:1027AB001FD67407F022121FCC941EEE9400400F1C
:1027BB009040747404F0748E121FD67412F022C3FE
:1027CB00EF940AEE9400904074400F7406F0A374DB
:1027DB0043F0A3E4F0A37422F0227408F0A3748BEB
:1027EB00F0A3E4F0A37440F022122A4A1229141227
:1027FB0014A51216541217B51211251220111224FA
:10280B00F190018EE0FFC39423501A900123E00452
:10281B00F0C3946440397464F09000E97401F0E4FF
:10282B009000DDF022EFD394234024900121E47536
:10283B00F001120451FEC3E5F09464EE9400400FD6
:10284B00900121E4F0A37464F09000DD7401F02298
:10285B0090019A743EF0A3E4F0900071E0FF12290E
:10286B006EFE122EC5EF601E900071E004F0E0C307
:10287B00948040E590019AE0FEA3E0FF122CE0E487
:10288B00900071F080D3900071E0FF70079000A36F
:10289B0004F0801212296ECF24FFCF34FFFE122ECC
:1028AB00C59000A3EFF09000A3E090009FF0229062
:1028BB00405E7401F0A374F4F0A3741FF0904062B7
:1028CB00E04404F090405CC083C082A3E0543FFF1F
:1028DB00D082D083E4F0A3EFF053F8C0904061E0D6
:1028EB0054EFF0E054FCF090405AE4F0A374FAF08B
:1028FB00D2BFC2BE904061E04404F0A3E04480F03C
:10290B00E054EFF0E04401F022E50964076006E5CE
:10291B0009640670469040CAE0FEA3E0FF9040C0F9
:10292B00E0FCA3E0FD122E739000D5EEF0A3EFF0C8
:10293B00C3E094999000D5E064809499401890007E
:10294B00D4E094055004E004F022E49000D4F0901D
:10295B0000D37402F022E49000D4F022E475F0016D
:10296B0002045190019BE02FFF90019AE03400226A
:10297B00E004F0E0D3940122900091F090007D22CE
:10298B00F09000C0F0A3F022E034FFF0D3A3E0946A
:10299B000022E0F59990007022E0FF3395E0FE22D3
:1029AB007C007D03AE0202041B9001B0E020E244E8
:1029BB00E04404F01218E09040A1E04402F0904093
:1029CB009012273BA3740EF074651227747414F0E5
:1029DB0090407412273B9040CC12271390405CC060
:1029EB0083C082E0FFA3E0443FD082D083CFF0A32B
:1029FB00EFF0D2FF22904051E044D0F0A3E0441816
:102A0B00F0904036C083C082E04408FFA3E044D47A
:102A1B00D082D083CFF0A3EFF0904036C083C0823A
:102A2B00E04430FFA3E0D082D083CFF0A3EFF0904F
:102A3B0040387431F0A3E054FCF0E04480F022E520
:102A4B0009640970429000D3E0FF64026004EFB4A4
:102A5B0001359000E3E0C39405502C9000F9E0049D
:102A6B00F070069000F8E004F0C39000F9E094D009
:102A7B009000F8E09407400FE4F0A3F09000E3E03F
:102A8B0004F0E49000D3F0227F0A7A017932122706
:102A9B00537E007D001227087F097A0079DE12270A
:102AAB005312272990016E1205CD00003FFF9001B4
:102ABB00741205CD00003FFF90017A1205CD000086
:102ACB003FFFE490019EF022E4FFFE0FBF00010EDA
:102ADB00BE27F8BF10F5122ED6122D59D2017FC882
:102AEB007E00122B1090004F7401F0900180E0706B
:102AFB0005121DD980F5121A09E50860EE120B813B
:102B0B00E4F50880E690401EE054DFFD7C003001C8
:102B1B00027C20ED4C90401EF07C807D001205FE67
:102B2B00E47BE87A03F9F81204E4C374FC9F74FFA6
:102B3B009E904027F0904026E054FDF0E04401F0D9
:102B4B0022C0E0C083C08290018E743CF09001984B
:102B5B007401F09000A0E06016900093E07010906C
:102B6B0000BDE0700A9000D0E07004C2878002D2F2
:102B7B008753D4FDD082D083D0E032904051E044D3
:102B8B0080F053D69F904035E054BFF090404B748B
:102B9B00E4F0904035E04480F043D60853D9FBE590
:102BAB00D954E74408F5D9E5D954FC4403F5D94386
:102BBB00D61022A3F0A3F0A3F0900124F0A322C31C
:102BCB0090013BE0945890013AE0940222E490018A
:102BDB0048F0A32290014B7401F0E490012422F001
:102BEB0090012404F0E4A3F0229001A4EEF0A3EFF3
:102BFB00F0C3ED9BFFEC9AFE7C007D191203B4C36E
:102C0B009001ABE09BFD9001AAE09AFC1203C6C3B6
:102C1B009001A5E09FFF9001A4E09EFE229001A4ED
:102C2B00EEF0A3EFF0AF03EF9003F8F0A3E4F09016
:102C3B0001A4E0FFA3E09003FACF122EE575C10EBD
:102C4B00E5C120E7FB9003FCE0FEA3E0FF229040F0
:102C5B0052E04402F0E04401F0904051E04480F037
:102C6B009040F3E054FBF090404EE04401F0904074
:102C7B00F2E054F7F0E04404F0E054FDF0228F82D0
:102C8B008E83C201A2AF9201122EA9500F7585013E
:102C9B0075845A75841F00EDF0758508A20192AFFB
:102CAB00E5857F0030E4027F0122E49000D3F0FE43
:102CBB00FD1227081227297E007F3B7D007B007ABF
:102CCB0000792112062B7E007F0A7D007B017A01A1
:102CDB00793202062B8F828E83A2AF9201122EA91C
:102CEB00501075850375845A75841F0074FFF07539
:102CFB008508A20192AFE5857F0030E4027F0122B7
:102D0B00C0E0C083C082E5D730E715E509640460F5
:102D1B000AC2FF9000D37401F08002C2FF53D77F29
:102D2B00D082D083D0E032C0E0C083C082C0D075E7
:102D3B00D000C00730980CC298AF999001ACE4F06A
:102D4B00A3EFF0D007D0D0D082D083D0E032122DB9
:102D5B00BD122B86122D7C122C59122A00122EB367
:102D6B001228BA122DF7122EF29040F1E04440F0E7
:102D7B0022904054E054F7F053FDF743FC80D28788
:102D8B00E04410F043FDE0E0541FF0C295C296C240
:102D9B009722C0E0E5A930E70353A97FE5A930E608
:102DAB000353A9BFE5A930E50653A9FE53A9DFD00C
:102DBB00E03290404FE0547FF0E04440F0904052BE
:102DCB00E04420F043FF2090404FE04411F022C03C
:102DDB00E0E59D30E703539D7FE59D30E603539D72
:102DEB00BFE59D30E503539DDFD0E03253FEFD90F0
:102DFB004055E054FDF0904051E054FDF053D4FDAC
:102E0B0043D302122F0022C0E0C083C082904061E6
:102E1B00E030E406E0448054EFF0D082D083D0E081
:102E2B00329003D4EEF0A3EFF075C117E5C120E7A4
:102E3B00FB9003D8E0FEA3E0FF22C0E0C083C0827A
:102E4B00C2FF9000D37401F0C28AD082D083D0E04D
:102E5B00329003C8122EE475C108E5C120E7FB9040
:102E6B0003CCE0FEA3E0FF22900332122EE475C1E7
:102E7B0025E5C120E7FB900338E0FEA3E0FF22909D
:102E8B0001B0E020E00DE04401F0904062E054DF3F
:102E9B00F0C2FF22900000E0FF90019CE022C2AF45
:102EAB00C3EF9480EE943F2253D77FE5D5543F4434
:102EBB0040F5D5D2C7D2C6D2AF22E49001A5F08F90
:102ECB00828E83939001A5F0E0FF22122A931228A1
:102EDB005BE4F5099000D3F022EEF0A3EFF0AF0521
:102EEB00A3ECF0A3EFF022C2CDD2CCD2AF904061D5
:102EFB00E04440F022C28CD28BC2BDC2BCD2AAD25B
:102F0B00AF229040A0E4F0C2FF12230A22121C3F12
:102F1B0012257C020657904026E04401F022122C29
:042F2B00B50226873E
:00000001FF
