:100000000221FF0200063232323232022E393232FF
:0100100032BD
:03001300022B407D
:03001B00022E06AC
:03002300022D911A
:03002B00020007C9
:03003300020008C0
:03003B00022CFF95
:03004300020009AF
:03004B00022DCEB5
:0300530002233154
:03005B0002000A96
:03006300022D2645
:03006B0002000E82
:0300730002000F79
:10007B0002001002039FE86480F8E933E833601153
:10008B000460F0ED33EC337009E8FCE9FDEAFEEBBC
:10009B00FF220460DED3EB9FEA9EE99DE8C2E78C6A
:1000AB00F0C2F795F0400CE8CCF8E9CDF9EACEFABE
:1000BB00EBCFFB12036A85D0F05804700320D5B345
:1000CB00E80470075002B2D50203A992D5EC046084
:1000DB00F7E4CCC0E0C398F8603B94186008400D7F
:1000EB00D0E0FB020381E4FBFAC9FC8028E830E492
:1000FB0006E4C9FBE4CAFCE830E305E4C9CACBFC5F
:10010B00E854076010F8C3E913F9EA13FAEB13FB91
:10011B00EC13FCD8F130F52FC3E49CFCEF9BFFEE06
:10012B009AFEED99FDD0E0FBEF4E4D4C701222DBA9
:10013B00030203A6EC2CFCEF33FFEE33FEED33FD95
:10014B00ED30E7EB020381EF2BFFEE3AFEED39FDCD
:10015B00D0E0FB50130BBB00030203A9ED13FDEE24
:10016B0013FEEF13FFEC13FC020381EC4D6011E85F
:10017B00497017ED33EC3304600DE4FCFFFEFD22F8
:10018B00E933E8330470F802039F12036A580460E2
:10019B0009E4CC248150062850090203A928400306
:1001AB000203A6C0E0EB4A7044B98006D0E0FB0224
:1001BB000395EF4E701CBD8008EBFFEAFEE9FD8056
:1001CB00EBE98DF0A4FEE5F002025FE9CDF9EAFE62
:1001DB00EBFFEF89F0A4FCE5F0CE89F0A42EFFE451
:1001EB0035F0CD89F0A42DFEE435F08067EF4E702D
:1001FB0005BD80D780C3EF8BF0A4ACF0EE8BF0A4E1
:10020B002CFCE435F0F8EF8AF0A42CE5F038FCE494
:10021B0033CB8DF0A42CFCE5F03BF8EE8AF0A42C4C
:10022B00FCE5F038F8E433CF89F0A42CFCE5F0388A
:10023B00CF3400CE89F0A42FFFE5F03EFEE433C9A6
:10024B008DF0A42EFEE5F039CD8AF0A42FFFE5F05A
:10025B003EFEE43DFD33D0E0FB50070BBB000F022D
:10026B0003A9EC2CFCEF33FFEE33FEED33FD020361
:10027B008174F8CC6480CCC86480C8F58204604F6C
:10028B00C3EB9FF5F0EA9E42F0E99D42F0E89C45F6
:10029B00F0603C501DE5825FFFE582D313CB5BCB57
:1002AB00F42B5582FB50280ABA002409B900200808
:1002BB00801DE5825BFBE582D313CF5FCFF4C313C5
:1002CB002F5582FF50090EBE00050DBD00010CC35A
:1002DB00EB9FF5F0EA9E42F0E99D42F0E89C45F079
:1002EB006007CC4820E701B3EC2275F020800E7537
:1002FB00F010800575F0087D007E007F003392D5ED
:10030B0030D503120576EC334010EF33FFEE33FE9E
:10031B00ED33FDEC33FCD5F0ED22E5F0247EA2D5D8
:10032B0013CC92E7CDCEFF22EDD2E7CD33EC339257
:10033B00D524814006E4FFFEFDFC22FCE4CFCECDAC
:10034B00CC24E0501174FF80EDC3CC13CCCD13CD76
:10035B00CE13CECF13CF0470F030D5DE020576E985
:10036B00D2E7C933E833F892D5EDD2E7CD33EC338E
:10037B00FC5002B2D522EC30E7100FBF000C0EBEC2
:10038B0000080DBD00040BEB6014A2D5EB13FCEDC4
:10039B0092E7FD2274FFFCFDFEFF22E480F8A2D55C
:1003AB0074FF13FC7D80E480EFEF8DF0A4A8F0CFF9
:1003BB008CF0A428CE8DF0A42EFE22BC000BBE0028
:1003CB0029EF8DF084FFADF022E4CCF875F008EF47
:1003DB002FFFEE33FEEC33FCEE9DEC984005FCEE6C
:1003EB009DFE0FD5F0E9E4CEFD22EDF8F5F0EE849D
:1003FB0020D21CFEADF075F008EF2FFFED33FD4062
:10040B0007985006D5F0F222C398FD0FD5F0EA22DB
:10041B00C2D5EC30E709B2D5E4C39DFDE49CFCEEFC
:10042B0030E715B2D5E4C39FFFE49EFE1203C6C3AB
:10043B00E49DFDE49CFC80031203C630D507C3E4A6
:10044B009FFFE49EFE22C5F0F8A3E028F0C5F0F86C
:10045B00E582158270021583E038F022A3F8E0C51F
:10046B00F025F0F0E582158270021583E0C838F0B4
:10047B00E822BB010A89828A83E0F5F0A3E02250CF
:10048B000687F009E71922BBFE07E3F5F009E3192C
:10049B002289828A83E493F5F07401932275F00824
:1004AB00758200EF2FFFEE33FECD33CDCC33CCC5B1
:1004BB008233C5829BED9AEC99E58298400CF582CC
:1004CB00EE9BFEED9AFDEC99FC0FD5F0D6E4CEFB3E
:1004DB00E4CDFAE4CCF9A88222B800C1B90059BA2C
:1004EB00002DEC8BF084CFCECDFCE5F0CBF978185A
:1004FB00EF2FFFEE33FEED33FDEC33FCEB33FB1054
:10050B00D703994004EB99FB0FD8E5E4F9FA22786D
:10051B0018EF2FFFEE33FEED33FDEC33FCC933C97F
:10052B0010D7059BE99A4007EC9BFCE99AF90FD889
:10053B00E0E4C9FAE4CCFB2275F010EF2FFFEE33A9
:10054B00FEED33FDCC33CCC833C810D7079BEC9AE8
:10055B00E899400AED9BFDEC9AFCE899F80FD5F071
:10056B00DAE4CDFBE4CCFAE4C8F922C3E49FFFE460
:10057B009EFEE49DFDE49CFC22EB9FF5F0EA9E427F
:10058B00F0E99D42F0EC6480C864809845F022E865
:10059B00600FECC313FCED13FDEE13FEEF13FFD84E
:1005AB00F122E86010ECA2E713FCED13FDEE13FE55
:1005BB00EF13FFD8F022ECF0A3EDF0A3EEF0A3EFD6
:1005CB00F022A8828583F0D083D0821205E4120535
:1005DB00E41205E41205E4E473E493A3C583C5F0C8
:1005EB00C583C8C582C8F0A3C583C5F0C583C8C57C
:1005FB0082C822EC8EF0A4CCC5F0CCCDF8EFA4CE03
:10060B00C5F02DFDE43CFCE8A42EC8C5F03DFDE48F
:10061B003CFCEFA4FFE5F028FEE43DFDE43CFC22AE
:10062B00EF4E6012EF60010EEDBB010B89828A83E6
:10063B00F0A3DFFCDEFA2289F05007F709DFFCA9F3
:10064B00F022BBFEFCF309DFFCA9F022E5096407ED
:10065B006003020B4CC3900095E094B0900094E0C3
:10066B009404501DA3E004F07006900094E004F095
:10067B00E49000C9F09000C0F0A3F0900198020B39
:10068B006C9000A3E024FE600F14602824027046D7
:10069B009000937401F0803E121FE6600D047036DB
:1006AB00741A121FB97435F0802C7426121FB9748A
:1006BB0036F08022121FE6601104701A90009174BC
:1006CB0044F090007D7464F0800C900091745DF0A8
:1006DB0090007D7469F09000B4121FC494F0EE94F6
:1006EB000F5008EF9496EE94005027900066E47537
:1006FB00F001120451FEC3E5F094F4EE9401401D99
:10070B009000667401F0A374F4F09000407401F053
:10071B00800BE4900066F0A3F0900040F090009303
:10072B00E06003020B759000BDE06003020B759057
:10073B0000D0E06003020B75900040E06003020BF9
:10074B00759000C1E004F070069000C0E004F0D397
:10075B009000C1E094E89000C0E0940350030209BC
:10076B00DEE4F0A3F090000A121FD24002E4F090F6
:10077B0000B4121FF194AAEE940E40030208BDEFD1
:10078B0094C5EE940C401B9000B4E0FCA3E0FD90EC
:10079B0001AA740EF0A374AAF07BC57A0C7F320207
:1007AB0008A9121F6F94E0EC940940139001AA74EE
:1007BB000CF0A374C5F07BE07A097F4B0208A912F9
:1007CB001F6F94A7EC940640139001AA7409F0A331
:1007DB0074E0F07BA77A067F640208A9121F6F945E
:1007EB0017EC940440139001AA7406F0A374A7F0BD
:1007FB007B177A047F7D0208A9121F6F9469EC9412
:10080B000240139001AA7404F0A37417F07B697A69
:10081B00027F960208A9121F6F9492EC940140126A
:10082B009001AA7402F0A37469F07B927A017FAAFB
:10083B00806C121F6F9408EC940140129001AA7403
:10084B0001F0A37492F07B087A017FBE8050121FD7
:10085B006F94AFEC940040129001AA7401F0A37452
:10086B0008F07BAF7A007FD28034121F6F9476EC46
:10087B00940040119001AAE4F0A374AFF07B767A58
:10088B00007FE68019121F6F9451EC9400401B906F
:10089B0001AAE4F0A37476F07B517A007FFA7E0014
:1008AB00122BE890009EEFF0800E90009E74FAF0F1
:1008BB00800690009E7419F09000A3E0FF70030275
:1008CB0009D99000B8E0FE9000B2F090009EE0FDD8
:1008DB009000B8F0D39E4007E49000CBF0801890C6
:1008EB0000B2E0FE9000B8E0C39E9000CB500574C0
:1008FB0001F080037402F0900078E06401706CEFFB
:10090B006403706790007DE0FFEDC39F502C900057
:10091B009EE0FEC3EF9EFFC3940540099000C9748F
:10092B0002F00209BBEFC394024039121FFF6003B0
:10093B000209BB9000C904F08076121F944025EE8B
:10094B009FFFC3940540089000C974FEF08061EFCF
:10095B00C39402400D121FFF70569000C974FFF034
:10096B00804E8000E49000C9F08045121FFF70405C
:10097B00C3121F95501B9000CBE06034C3EF9EC396
:10098B00940C9000C9E040052405F0802304F0800E
:10099B001F121F94401A9000CBE064016012EE9F6F
:1009AB00C3940C9000C9E0400524FBF0800214F0C6
:1009BB009000C9E0C36480946C500374ECF0900019
:1009CB00C9E0D364809492400A7412F08005E490DD
:1009DB0000C9F09000C9E0FF3395E0FE900091E074
:1009EB00FD3395E0FCED2FFFEC3EFE90000BE0FDA0
:1009FB003395E0FCEF2DFFEE3CFE9000A1F0A3EF52
:100A0B00F0ED2460FDE43CFCD3EF9DEC6480F8EE4C
:100A1B00648098400A9000A1ECF0A3EDF0800FC326
:100A2B009000A1E0648094805004E4F0A3F0900067
:100A3B00A1E0FAA3E0FB7C007D02FFAE0212041BD7
:100A4B00900035EEF0A3EFF0C3EB9FFFEA9EA3F00F
:100A5B00A3EFF0900035121F859000A4EFF0AF03C9
:100A6B00121F8B121FDA900035A3E0FE9000A4E05A
:100A7B00FDC3EE9DC39F9000A6F0900037121F851B
:100A8B009000A7EFF07C007D03AF03AE021203C60C
:100A9B00121FDA900037A3E0FE9000A7E0FDC3EE33
:100AAB009DC39F9000A9F0900198E0607DE4F090C9
:100ABB00008FE030E013A2E713FF9000BCE0B50716
:100ACB00119000AF7401F08009E49000AFF090003A
:100ADB008EF09000BCE004F0E0D394074022E4F0E9
:100AEB00900074E004F0E0D394054002E4F0900031
:100AFB0074E024A4F582E43400F583E090008FF0D9
:100B0B0090008FE0FF3395E0FEEF2401FFE43EA25F
:100B1B00E713EF13FF9000BCE0C39F50089000A0B9
:100B2B007401F08005E49000A0F09000AFE0603A13
:100B3B0090008E121FD24032E4F09000AFF0D287BB
:100B4B0022D287E4900094F0A3F09000B9F0A3F0C8
:100B5B009000A0F09000BCF09000C0F0A3F09000CB
:100B6B00C9F09000AFF090008EF022E4FF90030CE0
:100B7B00121FF8C333CE33CED8F9FF900184E0FCBB
:100B8B00A3E0FD7B1E122C1C900184EEF0A3EFF072
:100B9B009000C4121F6390030EE0FEA3E0FFE4FC81
:100BAB00FDEB2FFFEA3EFEED39FDEC38FC9000C467
:100BBB001205C1900075E004F0E0C3940A402B903D
:100BCB0000C4121F54780112059AE47B05FAF9F858
:100BDB001204E49000B4EEF0A3EFF09000C4120501
:100BEB00CD00000000E4900075F0900304121FF894
:100BFB00C333CE33CED8F9FF90001AEEF0A3EFF04B
:100C0B00900316121FF8C333CE33CED8F9FF9000E2
:100C1B001CE0FCA3E0FD7B0A122C1C90001CEEF0E8
:100C2B00A3EFF0900069E0FEA3E0FF90001A121F03
:100C3B00729FEC9E4008900069ECF0A3EDF09000E1
:100C4B005EE004F0D3940F5003020F0BE4F090001E
:100C5B0062121F63900069E0FEA3E0FFE4FCFDEB72
:100C6B002FFFEA3EFEED39FDEC38FC9000621205D9
:100C7B00C1900034E004F0C394105003020F0490B1
:100C8B000062121F54780412059A900056EEF0FA87
:100C9B00A3EFF0FB9000621205CD00000000E49082
:100CAB000034F0D3EB94A8EA9461400990000B74E4
:100CBB00DFF0020F04900056121FF194B4EE945F14
:100CCB00404ED3EF9444EE9461400990000B74E0D6
:100CDB00F0020F04D3EF94E0EE9460400990000B08
:100CEB0074E1F0020F04D3EF947CEE946040099012
:100CFB00000B74E2F0020F04D3EF9418EE946090A3
:100D0B00000B400674E3F0020F0474E4F0020F04CE
:100D1B00D3EF94C0EE945D404ED3EF9450EE945FBE
:100D2B00400990000B74E5F0020F04D3EF94ECEE46
:100D3B00945E400990000B74E6F0020F04D3EF941D
:100D4B0088EE945E400990000B74E7F0020F04D319
:100D5B00EF9424EE945E90000B400674E8F0020FC3
:100D6B000474E9F0020F04D3EF94CCEE945B40488B
:100D7B00D3EF945CEE945D400990000B74EAF002A3
:100D8B000F04D3EF94F8EE945C400990000B74EBD6
:100D9B00F0020F04D3EF9494EE945C400990000B97
:100DAB0074ECF0020F04D3EF9430EE945C90000BD4
:100DBB00401B74EDF0020F04D3EF94D8EE9459401E
:100DCB004AD3EF9468EE945B400990000B74EEF0FD
:100DDB00020F04D3EF9404EE945B400990000B7464
:100DEB00EFF0020F04D3EF94A0EE945A400590005D
:100DFB000B800CD3EF943CEE945A90000B4006748E
:100E0B00F0F0020F0474F1F0020F04D3EF94E4EE50
:100E1B009457400990000B74F2F0020F04D3EF9437
:100E2B00F0EE9455404ED3EF9480EE9457400990DA
:100E3B00000B74F3F0020F04D3EF941CEE945740A5
:100E4B000990000B74F4F0020F04D3EF94B8EE94F6
:100E5B0056400990000B74F5F0020F04D3EF945435
:100E6B00EE945690000B400674F7F0020F0474F8E2
:100E7B00F0020F04D3EF94FCEE9453404BD3EF945A
:100E8B008CEE9455400890000B74F9F0806BD3EF07
:100E9B009428EE9455400890000B74FBF0805AD3C5
:100EAB00EF94C4EE9454400890000B74FDF080490D
:100EBB00D3EF9460EE9454400890000B74FEF080D6
:100ECB0038E490000BF08031D3EF9408EE9452404D
:100EDB000890000B7401F08020D3EF9414EE945023
:100EEB004011D3EF94DCEE945090000B4008740249
:100EFB00F0800690000B7403F0E4900069F0A3F00F
:100F0B001212E31227E8122776022F0C0108004871
:100F1B00018F00000000000000004101970041011B
:100F2B00980041018E004100680041006100C10042
:100F3B0042006900004400620000000042005600BD
:100F4B000041005E004100340041000B00410000F5
:100F5B000041000100410002004100030041000478
:100F6B000041000500410006004100070042000857
:100F7B00000042005F00004100400042006600009C
:100F8B004200350000420037000041000A004100DA
:100F9B00980041009A0041009D00410099004100DA
:100FAB009C004100AE00410092004100C300410093
:100FBB006C0041007A004100900041006D0041003F
:100FCB00AA004100B3004100C20041006B00410088
:100FDB007800410097004100A30041009F004100B1
:100FEB00BB004100A000410091004200A100004164
:100FFB0000CE0041008F004100AD004100BC00421B
:10100B00009400004200AB0000410096004400C475
:10101B00000000004200B400004100750041009E3A
:10102B000041009B004100BD0042007200004100E6
:10103B007D004200C000004100C9004100B20041E8
:10104B0000B8004100CB004100CF004200CC0000B3
:10105B004100B6004200B000004200BE000042005A
:10106B00B900004100B70042006E00004100930040
:10107B00410079004100C8004100700042007B0034
:10108B000042007600004100AF0041008E00460098
:10109B00A4000000000000410074004100CA0041A0
:1010AB0000710046012C37A5354431CE460126236D
:1010BB009C21051E9846013D154513A9122C410193
:1010CB0048004101490041014A0041014B004101E7
:1010DB0024004101250041013C004100E900410190
:1010EB0023004100DD0042012100004100D00042FD
:1010FB0000E7000042011F00004200D10000410147
:10110B001E004101990045019F000000000000E511
:10111B00096407600302129CC3900105E094F490EC
:10112B000104E09401500FA3E004F0700690010459
:10113B00E004F002129C9040DAE0FFA3E09000D7AD
:10114B00CFF0A3EFF09040DCE0FFA3E09000D9CF0D
:10115B00F0A3EFF09040DEE0FFA3E09000DBCFF0D8
:10116B00A3EFF09000D91222A49000D71222F350D3
:10117B00089000DB1222BE401FD39000D8E09406EB
:10118B009000D7E094014010900107E004F0700646
:10119B00900106E004F0801BD3900107E0940090CF
:1011AB000106E09400400CA3E024FFF0900106E060
:1011BB0034FFF01222A1A31222F35006A31222BE77
:1011CB00401FD39000DAE094069000D9E0940140E0
:1011DB0010900109E004F07006900108E004F08023
:1011EB001BD3900109E09400900108E09400400C9F
:1011FB00A3E024FFF0900108E034FFF01222A1904D
:10120B0000DB1222F350089000D91222BE401FD3EC
:10121B009000DCE094069000DBE09401401090011C
:10122B000BE004F0700690010AE004F0801BD390F1
:10123B00010BE0940090010AE09400400CA3E02421
:10124B00FFF090010AE034FFF09000D71222CCA3FC
:10125B00F0A3F09040EEE04480F0D3900107E094CF
:10126B0032900106E09400501C900109E0943290FA
:10127B000108E09400500E90010BE0943290010AAB
:10128B00E09400400C9000E2E004F09000D3740571
:10129B00F09000D3E064057037E509B40932900093
:1012AB00E2E0C39402502990010DE004F070069027
:1012BB00010CE004F0C390010DE094D090010CE020
:1012CB00940740139001061222CCA312229AF0220B
:1012DB00E490010CF0A3F022E509B4072790001A63
:1012EB00E0FEA3E0FFA3E0FCA3E0FD122E50900074
:1012FB001FEEF0A3EFF0A37B0A121491900021EEE6
:10130B00F0A3EFF0E50964016033E509602F90402D
:10131B00D4E0FEA3E0FF9000277B321214919000E3
:10132B0027EEF0A3EFF09040E0E0FEA3E090002961
:10133B00121485900029EEF0A3EFF08007E49000E3
:10134B0027F0A3F09040BAE0FEA3E090002B12141C
:10135B008590002BEEF0A3EFF09040B8E0FEA3E0F9
:10136B00FF90002DE0FCA3E0FD7B0A122C1C9000EB
:10137B002DEEF0A3EFF0E50964076009E5096408B9
:10138B00600302148490001EE01460790460030271
:10139B001484D3900028E094B0900027E0648094EC
:1013AB008540479040AD7404F0904090E4F0A3F07A
:1013BB0090001E04F09040947419F0A37498F0A35D
:1013CB00743FF0A374FFF0900027121F7C90000E67
:1013DB001205C19000121205CD429A000090001622
:1013EB001205CD410000000223C5904092E0FEA300
:1013FB00E0C3941EEE64809485507E904092E47519
:10140B00F003020451900030E004F0700690002FBE
:10141B00E004F0C3900030E0940190002FE09400C2
:10142B004057900050E0FEA3E0FF12216090005265
:10143B00EEF0A3EFF0E490002FF0A3F09000271252
:10144B001FF19476EE6480949540079040A1E044A0
:10145B0020F0C3900053E09FFF900052E09EFE905F
:10146B000047F0A3EFF0122E20900045EEF0A3EF13
:10147B00F0904092EEF0A3EFF022FFE0FCA3E0FD32
:10148B007B0A122C1C22E0FCA3E0FD122C1C2290E8
:10149B0000D3E0600302157290001A12231294EE2F
:1014AB00EE945F40319000EBE004F070069000EAA0
:1014BB00E004F0D39000EBE0942C9000EAE0940170
:1014CB00402FE4F0A3F09000D004122306E4900028
:1014DB00F3F0A3F0801BD39000EBE094009000EAB4
:1014EB00E09400400CA3E024FFF09000EAE034FF0E
:1014FB00F0C3EF9448EE943B4005122319504D90E6
:10150B0000EDE004F070069000ECE004F0D39000E6
:10151B00EDE0941E9000ECE09400404B1222997485
:10152B0003F0122319501590011E7401F09000F076
:10153B0004F0A37458F0A37401F08007E490011E2B
:10154B00122306E49000F3F0A3F0801BD39000ED80
:10155B00E094009000ECE09400400CA3E024FFF03A
:10156B009000ECE034FFF09000D0E060269000E7B4
:10157B00E475F001120451FED3E5F094E8EE940308
:10158B004011E49000E7F0A3F09000D0F09000D36E
:10159B007404F0E509640960030216489000D3E077
:1015AB00FF64036008EF6404600302164890001A9E
:1015BB001223209415EE9462503DEF940FEE944657
:1015CB0040359000E5E094FF502D122319402890F0
:1015DB0000EFE004F070069000EEE004F0D3900012
:1015EB00EFE094969000EEE094004051E49000BD43
:1015FB00F09000D3F080409000D3E0FF64036004D0
:10160B00EFB404321222B0400CA3E024FFF09000A0
:10161B00F0E034FFF090405EE0FEA3E0FFC39000EB
:10162B00F4E09F9000F3E09E500CA3E02405F090B3
:10163B0000F3E03400F0E49000EEF0A3F022E509B3
:10164B0064076003021773D3900117E09420900195
:10165B0016E094035039A3E004F07006900116E0F5
:10166B0004F0D3900028E09438900027E064809435
:10167B00CE401C90002AE09488900029E0941350EF
:10168B000EE490011612229A1222E9A37401F0D3F0
:10169B00900111E094E8900110E0940340030217CD
:1016AB003FA3E004F07006900110E004F0900113EA
:1016BB00E004F07006900112E004F0C3900113E017
:1016CB009490900112E0940140717401F0A3749016
:1016DB00F090002AE09498900029E09408503890FC
:1016EB00010FE004F0700690010EE004F0C39001CE
:1016FB000FE0942890010EE09400403F9000D3122D
:10170B0022E9E4900112F0A3F090010EF0A3F09007
:10171B0000DF7402F08024D390010FE0940090015D
:10172B000EE094004015A3E024FFF090010EE0348E
:10173B00FFF08007E490010EF0A3F090001EE07024
:10174B0027900115E004F07006900114E004F0C33B
:10175B00900115E094D0900114E09407400A1222F6
:10176B00991222E9A37403F09000D3E0B4072FE59C
:10177B0009B4092A9000DEE0D39405502190011999
:10178B00E004F07006900118E004F0D3900119E02A
:10179B0094C8900118E094004004122299F022E5BD
:1017AB000964076003021896D39000FBE094F49051
:1017BB0000FAE09401500FA3E004F070069000FAD9
:1017CB00E004F00218969000291223209460EE9406
:1017DB000940199040D4E0FCA3E0D3941CEC648046
:1017EB009487402FEF94ACEE940D50279000FDE0C2
:1017FB0004F070069000FCE004F0C39000FDE09450
:10180B00329000FCE0940040251222991222D5045C
:10181B00F0801BD39000FDE094009000FCE094005E
:10182B00400CA3E024FFF09000FCE034FFF09000AC
:10183B002712232094FAEE64809484400BD3EF9408
:10184B00A9EE648094EA40289000FFE004F0700653
:10185B009000FEE004F0C39000FFE0943C9000FE8B
:10186B00E0940040261222991222D57402F0801BBC
:10187B00D39000FFE094009000FEE09400400CA396
:10188B00E024FFF09000FEE034FFF09000D3E0B4D2
:10189B000630E509B4092B9000E0E0D39402502206
:1018AB00900103E004F07006900102E004F0C39095
:1018BB000103E094E8900102E09403400C1222999A
:1018CB00F022E4900102F0A3F022904062E0547FFA
:1018DB00F0E054DFF0E04420F09040EEE04404F000
:1018EB009040A0E4F0A3F09040901227309040CCB1
:1018FB00F0A3F09040AAF0A3F09040A8F0A3F090D2
:10190B0040ACF09040AE7407F0A3741CF09040AD67
:10191B007402F09040B07426F0A37466F0A374D9EF
:10192B00F0A3749AF0A3747EF0A374B7F0A3748140
:10193B00F0A37449F090408CE4F0A37472F0A3749C
:10194B0005F0A37477F09040887402F0747D122731
:10195B0068F09040807410F0A3E4F090407EF0A308
:10196B007455F090407C744BF0A37465F09040A3D9
:10197B00E4F09040EEE04420F09040A1E0547FF082
:10198B00904078746CF0A374CBF0A37402F0A37442
:10199B003BF09040A0E04401F090004FE09040629B
:1019AB00B40106E04440F08004E054BFF09040A046
:1019BB00E054F3F09040A274D8F09040A5740FF06F
:1019CB009040A1E054DFF053D69F900180E0B4012A
:1019DB00169040A1E054F3F0900178E0FFA3E09063
:1019EB0040A6CFF0A3EFF0904062E04408F0E04453
:1019FB0080F0229000D3E06003750909E509B40C6F
:101A0B00004003021B24901A18F8282873021A3C72
:101A1B00021A61021A7C021B24021A96021AA502F0
:101A2B001ABD021AC4021ADD021AFB021B24021A87
:101A3B00E0122E7E900180E064016003021B249073
:101A4B00004DE064016003021B24750901900180C5
:101A5B00F090017E8078900180E064016003021BAE
:101A6B0024122F1D750902900032E4F0A3743CF090
:101A7B0022121D01900032E07002A3E06003021BF2
:101A8B0024C2FF7509049000328043E4900025F0D6
:101A9B00A3F075090590003280341229A89000320A
:101AAB00E07002A3E070727509069040A1E054FD4E
:101ABB00F0221224587509072290004DE0705A75D8
:101ACB000908900032F0A374C8F0904092E4F0A3A0
:101ADB00F022021E91900032E07002A3E0703A9067
:101AEB00004EF0C2FF904062E054DFF0E4F50922B3
:101AFB009000D3E0FF64046004EFB40308121B25CD
:101B0B001225F98003122F019000D3E0700BF50919
:101B1B0090019EF09000B704F02290011EE070033C
:101B2B00021BAB1222B040769000F3E0FFA3E090D3
:101B3B004058CFF0A3EFF09000F2E07003021C339B
:101B4B0090405CC083C082E0FFA3E054C0D082D041
:101B5B0083CFF0A3EFF0E49000F2F0904062E054FA
:101B6B00F7F090405CC083C082E0FFA3E04415D047
:101B7B0082D0831223274480F0D2FF90405EE0FC9A
:101B8B00A3E0FDE41202FA7BCD7ACC794C783D12BE
:101B9B000176120333904058EEF0A3EFF022807CD5
:101BAB009000F0122312942CEE9401400D90409271
:101BBB00E4F0A3F09000F204F022D3EF9464EE94DF
:101BCB000040549000F2E06401705DF0C2FF904061
:101BDB00A01222FD90405EE0FEA3E02401FFE43E54
:101BEB00904058F0A3EFF090405CC083C082E0FFC0
:101BFB00A3E054C0D082D083CFF0A3EFF090405C31
:101C0B00C083C082E0FFA3E04415D082D0831223AF
:101C1B002754F7F0D2FF221222B0500C9040A0E4D0
:101C2B001222FDC2FFE4F5F8229000A3E09000CF52
:101C3B00F0900000E004F0E0D394144060E4F0A3D3
:101C4B00E0D3940F402A900003E004F0E4900007E7
:101C5B00F0900003E0940A403BE4F0900078F090A1
:101C6B00004D04F09000507439F0A3743BF08024C5
:101C7B00900002E0D39407401B900007E004F0E4CF
:101C8B00900003F0900007E0940A4008E4F0900005
:101C9B0078121FA8E4900001F0A3F0800E209305AA
:101CAB009000018003900002E004F020942CE4905B
:101CBB000005F0900004E004F0E0C394144036906B
:101CCB000006E07030900004F090000604F09000E5
:101CDB00A3121FD2401F7401F022E4900004F0A362
:101CEB00E004F0E0C39414400CA3E0B40107E490CB
:101CFB000005F0A3F0229001B0E020E141E04402A6
:101D0B00F090405CC083C082A3E0543FFFD082D0F0
:101D1B0083E4F0A3EFF053F8C090405EE0FCA3E047
:101D2B00FDE41202FA7433FBFAF9783F12017612D2
:101D3B000333904058EE122750E4900031F0C390DB
:101D4B000033E0943C12276F5020900031E0701A62
:101D5B0004F090405CC083C082E0FFA3E04401D05C
:101D6B0082D083CFF0A3EFF0D2FFD3900033E09477
:101D7B002812276F5020900031E0B401197402F043
:101D8B0090405CC083C082E0FFA3E04404D082D0CB
:101D9B0083CFF0A3EFF0D3900033E0941412276FAE
:101DAB005020900031E0B402197403F090405CC0F5
:101DBB0083C082E0FFA3E04410D082D083CFF0A396
:101DCB00EFF022900180E06003021E90904039E01A
:101DDB004440F0904039E020E6F990017AE0F8A316
:101DEB00E0F9A3E0FAA3E0FBC000C001C002C0030E
:101DFB00900308E0540FFEA3E07803C333CE33CE39
:101E0B00D8F9FFE4FCFDD003D002D001D000EB2FBA
:101E1B00FFEA3EFEED39FDEC38FC90017A1205C16C
:101E2B0090017A12275C78041205AD900178EEF0E0
:101E3B00A3EFF0A312275CC006C007900178E0FE69
:101E4B00A3E0FBAA06EA3395E0F9F8D007D006C366
:101E5B00EF9BFFEE9AFEED99FDEC98FCA31205C1EA
:101E6B0090017FE004F0700690017EE004F0D390C7
:101E7B00017FE094E890017EE064809483400690BB
:101E8B0001807401F022900027E0FEA3E0FFC394D1
:101E9B00E3EE648094B8400D900032E07002A3E052
:101EAB006003021F35C3EF94E3EE648094B85010C7
:101EBB00122738400B90409274FDF0A374F4F0227B
:101ECB00C3122738505CC2FF9040A0E4F0904062F0
:101EDB00E054DFF090405EE0FEA3E02401FFE43E1F
:101EEB00904058F0A3EFF090405CC083C082E0FFBD
:101EFB00A3E054C0D082D083CFF0A3EFF090405C2E
:101F0B00C083C082E0FFA3E04415D082D083CF1200
:101F1B002750D2FF75090B9000327402F0A374584E
:101F2B00F022904092E4F0A3F02290004DE0D39485
:101F3B00004012750907E490001EF0904092740562
:101F4B00F0A3741EF02290000EE0FCA3E0FDA3E0D2
:101F5B00FEA3E0FF2290000EE0F8A3E0F9A3E0FA65
:101F6B00A3E0FB229000B4E0FCA3E0FDD3229000A1
:101F7B000CE0FCA3E0FDEC0202FAE0FAA3E0FBFFAD
:101F8B007C007D03AE020203C6D390007DE0FF9080
:101F9B00009EE0FE9F22A3F0A3E4F0A32204F090A6
:101FAB00004DF09000507449F0A374AFF0229000F4
:101FBB0091F090007D22900032E0FEA3E0FFC3225F
:101FCB00A3F0A3E4F0A322E004F0E0D3940322EC0B
:101FDB00C313ED13FFE02FFFA3F022E4900093F067
:101FEB00900078E01422E0FEA3E0FFD322E0FEA3F2
:101FFB00E078032290000AE06403229000D3E070A3
:10200B005BC3900185E0946C900184E09422503185
:10201B0090011BE004F0700690011AE004F0D390DD
:10202B00011BE094F490011AE09401402F1222CC92
:10203B009000E6E004F09000D3740BF0122F0180B7
:10204B001BD390011BE0940090011AE09400400C0C
:10205B00A3E024FFF090011AE034FFF09000D3E0EE
:10206B00640B70479000E6E0C39402503E900185EC
:10207B00E094B0900184E0942A402990011DE00483
:10208B00F0700690011CE004F0C390011DE094D0A9
:10209B0090011CE094074013E4F0A3F090011A1296
:1020AB00229AF022E490011CF0A3F02290013874E4
:1020BB0004F0A374E2F0C3900135E09F900134E08B
:1020CB0094005062900133E004F07006900132E00E
:1020DB0004F0900132E0FEA3E0FFC394FAEE94000B
:1020EB005011D295D296D297ED6401706790014B47
:1020FB00048017C3EF94F4EE94015014C295C2966A
:10210B00C297ED6401704D90014BF090012480411A
:10211B00E4900132F0A3F0900135E004F0703590BB
:10212B000134E004F022900137E004F070069001D6
:10213B0036E004F0900138E0FEA3E0FFD3900137C6
:10214B00E09F900136E09E400BE4900134F0A3F049
:10215B00A3F0A3F02290000CEEF0A3EFF0FDAC0681
:10216B00EC1202FA121F6012027C503F9000121206
:10217B001F54121F60120085C004C005C006C007A3
:10218B00121F79A804A905AA06AB07D007D006D061
:10219B0005D00412027C600E400C121F51A3121FBB
:1021AB00631200858042121F79803D900016121F2A
:1021BB0063121F51120081C004C005C006C0071274
:1021CB001F79A804A905AA06AB07D007D006D0052E
:1021DB00D00412027C500E121F51900016121F6376
:1021EB001200818003121F7990000E1205C1121F7D
:1021FB005102033378FEE4F6D8FD9000007FFF7E9A
:10220B0003E4F0A3DFFCDEFA75815B022254022AA1
:10221B00C7E493A3F8E493A34003F68001F208DF2D
:10222B00F48029E493A3F85407240CC8C333C45493
:10223B000F4420C8834004F456800146F6DFE48047
:10224B000B0102040810204080900F17E47E0193CD
:10225B0060BCA3FF543F30E509541FFEE493A36019
:10226B00010ECF54C025E060A840B8E493A3FAE474
:10227B0093A3F8E493A3C8C582C8CAC583CAF0A3C5
:10228B00C8C582C8CAC583CADFE9DEE780BEE4F0F1
:10229B00A3F09000D3229000D7E0FEA3E0FF7C00D8
:1022AB007D030203B4D39000F1E094009000F0E0C2
:1022BB00940022E0FEA3E0FF1203B4D3EB9FEA9E4F
:1022CB0022E4F0A3F0A3F0A3F0227406F09000E058
:1022DB00E004F0E49000FAF0A3F09000E122740720
:1022EB00F09000DEE004F022E0FAA3E0FBD39FEADB
:1022FB009E22F0904062E054DFF022F09000F074E8
:10230B0003F0A37420F022E0FEA3E0FFD3229001A0
:10231B008EE0942322E0FEA3E0FFC322CFF0A3EFD5
:10232B00F0904062E022C0E0C0F0C083C082C0D019
:10233B0075D000C000C001C002C003C004C005C0FE
:10234B0006C007904061E030E73D750801904039C9
:10235B00E04440F0D3900033E09400900032E094DE
:10236B0000400CA3E024FFF0900032E034FFF0902B
:10237B00018EE0D394004003E014F0122F1590402F
:10238B0061E04410547FF0E59F30E703539F7FE5F6
:10239B009F30E603539FBFE59F30E503539FDFD08C
:1023AB0007D006D005D004D003D002D001D000D086
:1023BB00D0D082D083D0F0D0E0327E007F0C7D0075
:1023CB007B017A00794112062B90002FE4F0A304D5
:1023DB00F09000417404F074CC121FA17441F09082
:1023EB000049740DF0744F121FA1741AF090004144
:1023FB00E0FFA3E09003D0CFF0A3EFF0900043E019
:10240B00FFA3E09003D6CFF0A3EFF0900049E0FFDD
:10241B00A3E09003DCCFF0A3EFF090004BE0FFA321
:10242B00E09003DECFF0A3EFF09003D87405F0A398
:10243B00741EF09003D27401F0A374F4F090039423
:10244B00E0FFA3E0900390CFF0A3EFF0229001B058
:10245B00E020E46DE04410F01218D59040CCE4126B
:10246B002707904090E4F0A3F09000237405F0A3AD
:10247B00741EF09040947407F0A374FFF0A37401E2
:10248B00F0A37406F09040B4747EF0A374B7F0A37D
:10249B00E4F0A3F0904074122730904082F0A374C4
:1024AB0014F0A37401F0A3746CF0A37403F0A37481
:1024BB008EF09040A0E04440F0E054DFF0E0441098
:1024CB00F0900032E4F0A37464F0900023E0FFA3DB
:1024DB00E0904092CFF0A3EFF0229000B4122312C1
:1024EB0094F2EE94015023E4900072F0A3F090006C
:1024FB009BE004F0E0946440169000BDE0701090F7
:10250B00009BF09000BD04F08005E490009BF090E0
:10251B0000BDE0604FD3EF9417EE9404402BE49092
:10252B00009BF0900073E004F07006900072E004E2
:10253B00F0C3900073E094D0900072E094074024B5
:10254B00E4F0A3F09000BDF022D3900073E0940070
:10255B00900072E09400400CA3E024FFF090007216
:10256B00E034FFF0229000DDE07004C295801890FB
:10257B0000D3E0FF70249000A3E024FE600E1460F3
:10258B001224027068D295C296C29722C295D29637
:10259B00C29722C295C296D29722122BBE5013C25B
:1025AB0095C296C297A3E004F0704290013AE00402
:1025BB00F022EF14601E14601524FD602314601AC2
:1025CB0024FC6022240670257D017F02801C7D0186
:1025DB007F0580167D017F0480107D017F03800ABB
:1025EB007D017F0680047D017F011220B722D390ED
:1025FB0000F1E094009000F0E09400507290009F86
:10260B00E0FF9000A3E0FE6F6065EE6062E4900176
:10261B00A4F090019EE07044C2AF900071E0C394AF
:10262B0080401090019AE0FEA3E0FF122CD4E490BE
:10263B000071F0900071E0FF90019BE02FFF900183
:10264B009AE03400FE9000CFE0FD122C7D0090004C
:10265B0071E004F090019E7401F0D2AF90019EE006
:10266B00600D9000A3E090009FF0E490019EF0229B
:10267B009003D07404F0A374CCF09003D6E4F0A3D1
:10268B007441F09003DC740DF0A3744FF0A3E4F0ED
:10269B00A3741AF09003887401F0A37499F090035B
:1026AB008EE4F0A37420F0900394747EF0A374B7BF
:1026BB00F0A3744CF0A374CCF09003787419F0A3CE
:1026CB007498F090037E743FF0A374FFF090038432
:1026DB00747EF0A374B7F0A37481F0A37449F090E7
:1026EB000390740DF0A3744FF0900380E4F0A3F00B
:1026FB00227F347B017A0079EA02062BF0A3F0905B
:10270B0040CCE0FEA3E02400FFEE34F0A3F0A3EFF7
:10271B00F022E49001B0F0FE7F1AFD7B017A007984
:10272B001A02062BE4F0A3F0A3F0A3F022900028EA
:10273B00E0948D900027E0648094A3227E007D00BE
:10274B007B0102062BF0A3EFF0904062E054F7F010
:10275B0022E0FCA3E0FDA3E0FEA3E0FF22A3F0A395
:10276B00E4F0A322900032E0940022E509640770A4
:10277B006B121FC19446EE94005061C3EF9432EE7E
:10278B00940040169040A1E054FDF0904074740208
:10279B00F074D9121FCB7407F022121FC1941EEED6
:1027AB009400400F9040747404F0748E121FCB741D
:1027BB0012F022C3EF940AEE9400904074400F7411
:1027CB0006F0A37443F0A3E4F0A37422F022740880
:1027DB00F0A3748BF0A3E4F0A37440F022122A3E12
:1027EB0012290812149A1216491217AA12111A1248
:1027FB0020061224E590018EE0FFC39423501A901B
:10280B000123E004F0C3946440397464F09000E950
:10281B007401F0E49000DDF022EFD3942340249078
:10282B000121E475F001120451FEC3E5F09464EE4E
:10283B009400400F900121E4F0A37464F09000DD4C
:10284B007401F02290019A743EF0A3E4F0900071B1
:10285B00E0FF122962FE122EB9EF601E900071E0AC
:10286B0004F0E0C3948040E590019AE0FEA3E0FF02
:10287B00122CD4E4900071F080D3900071E0FF70C3
:10288B00079000A304F08012122962CF24FFCF34EB
:10289B00FFFE122EB99000A3EFF09000A3E0900082
:1028AB009FF02290405E7401F0A374F4F0A3741FA8
:1028BB00F0904062E04404F090405CC083C082A37F
:1028CB00E0543FFFD082D083E4F0A3EFF053F8C085
:1028DB00904061E054EFF0E054FCF090405AE4F08B
:1028EB00A374FAF0D2BFC2BE904061E04404F0A3DF
:1028FB00E04480F0E054EFF0E04401F022E509649D
:10290B00076006E509640670469040CAE0FEA3E046
:10291B00FF9040C0E0FCA3E0FD122E679000D5EEC7
:10292B00F0A3EFF0C3E094999000D5E06480949904
:10293B0040189000D4E094055004E004F022E49099
:10294B0000D4F09000D37402F022E49000D4F02273
:10295B00E475F00102045190019BE02FFF90019A66
:10296B00E0340022E004F0E0D3940122900091F0D7
:10297B0090007D22F09000C0F0A3F022E034FFF035
:10298B00D3A3E0940022E0F59990007022E0FF338E
:10299B0095E0FE227C007D03AE0202041B9001B089
:1029AB00E020E244E04404F01218D59040A1E0444A
:1029BB0002F090409012272FA3740EF0746512272B
:1029CB00687414F090407412272F9040CC12270794
:1029DB0090405CC083C082E0FFA3E0443FD082D034
:1029EB0083CFF0A3EFF0D2FF22904051E044D0F020
:1029FB00A3E04418F0904036C083C082E04408FF47
:102A0B00A3E044D4D082D083CFF0A3EFF090403634
:102A1B00C083C082E04430FFA3E0D082D083CFF0EC
:102A2B00A3EFF09040387431F0A3E054FCF0E04495
:102A3B0080F022E509640970429000D3E0FF640244
:102A4B006004EFB401359000E3E0C39405502C9083
:102A5B0000F9E004F070069000F8E004F0C3900079
:102A6B00F9E094D09000F8E09407400FE4F0A3F065
:102A7B009000E3E004F0E49000D3F0227F0A7A01A7
:102A8B0079321227477E007D001226FC7F097A00DF
:102A9B0079DE12274712271D90016E1205CD00001B
:102AAB003FFF9001741205CD00003FFF90017A1299
:102ABB0005CD00003FFFE490019EF022E4FFFE0FE6
:102ACB00BF00010EBE27F8BF10F5122ECA122D4DF6
:102ADB00D2017FC87E00122B0490004F7401F0903E
:102AEB000180E07005121DCE80F51219FEE508601D
:102AFB00EE120B76E4F50880E690401EE054DFFD05
:102B0B007C003001027C20ED4C90401EF07C807DDF
:102B1B00001205FEE47BE87A03F9F81204E4C374AF
:102B2B00FC9F74FF9E904027F0904026E054FDF0F0
:102B3B00E04401F022C0E0C083C08290018E743C5F
:102B4B00F09001987401F09000A0E0601690009353
:102B5B00E070109000BDE0700A9000D0E07004C2ED
:102B6B00878002D28753D4FDD082D083D0E03290BD
:102B7B004051E04480F053D69F904035E054BFF075
:102B8B0090404B74E4F0904035E04480F043D6081D
:102B9B0053D9FBE5D954E74408F5D9E5D954FC449E
:102BAB0003F5D943D61022A3F0A3F0A3F090012490
:102BBB00F0A322C390013BE0945890013AE09402B9
:102BCB0022E4900148F0A32290014B7401F0E490B1
:102BDB00012422F090012404F0E4A3F0229001A43C
:102BEB00EEF0A3EFF0C3ED9BFFEC9AFE7C007D199A
:102BFB001203B4C39001ABE09BFD9001AAE09AFCD9
:102C0B001203C6C39001A5E09FFF9001A4E09EFEB6
:102C1B00229001A4EEF0A3EFF0AF03EF9003F8F0D6
:102C2B00A3E4F09001A4E0FFA3E09003FACF122EEF
:102C3B00D975C10EE5C120E7FB9003FCE0FEA3E0D4
:102C4B00FF22904052E04402F0E04401F0904051EA
:102C5B00E04480F09040F3E054FBF090404EE044B1
:102C6B0001F09040F2E054F7F0E04404F0E054FD42
:102C7B00F0228F828E83C201A2AF9201122E9D5041
:102C8B000F75850175845A75841F00EDF0758508E5
:102C9B00A20192AFE5857F0030E4027F0122E49030
:102CAB0000D3F0FEFD1226FC12271D7E007F3B7D1C
:102CBB00007B007A00792112062B7E007F0A7D00B3
:102CCB007B017A01793202062B8F828E83A2AF921F
:102CDB0001122E9D501075850375845A75841F0043
:102CEB0074FFF0758508A20192AFE5857F0030E493
:102CFB00027F0122C0E0C083C082E5D730E715E533
:102D0B00096404600AC2FF9000D37401F08002C210
:102D1B00FF53D77FD082D083D0E032C0E0C083C0D6
:102D2B0082C0D075D000C00730980CC298AF999074
:102D3B0001ACE4F0A3EFF0D007D0D0D082D083D099
:102D4B00E032122DB1122B7A122D70122C4D12294A
:102D5B00F4122EA71228AE122DEB122EE69040F194
:102D6B00E04440F022904054E054F7F053FDF74319
:102D7B00FC80D287E04410F043FDE0E0541FF0C22A
:102D8B0095C296C29722C0E0E5A930E70353A97F0D
:102D9B00E5A930E60353A9BFE5A930E50653A9FE23
:102DAB0053A9DFD0E03290404FE0547FF0E0444035
:102DBB00F0904052E04420F043FF2090404FE0441D
:102DCB0011F022C0E0E59D30E703539D7FE59D3078
:102DDB00E603539DBFE59D30E503539DDFD0E03205
:102DEB0053FEFD904055E054FDF0904051E054FDF2
:102DFB00F053D4FD43D302122EF422C0E0C083C0A3
:102E0B0082904061E030E406E0448054EFF0D082E1
:102E1B00D083D0E0329003D4EEF0A3EFF075C1175E
:102E2B00E5C120E7FB9003D8E0FEA3E0FF22C0E062
:102E3B00C083C082C2FF9000D37401F0C28AD082DB
:102E4B00D083D0E0329003C8122ED875C108E5C1EB
:102E5B0020E7FB9003CCE0FEA3E0FF2290033212AD
:102E6B002ED875C125E5C120E7FB900338E0FEA302
:102E7B00E0FF229001B0E020E00DE04401F0904033
:102E8B0062E054DFF0C2FF22900000E0FF90019C53
:102E9B00E022C2AFC3EF9480EE943F2253D77FE57D
:102EAB00D5543F4440F5D5D2C7D2C6D2AF22E49019
:102EBB0001A5F08F828E83939001A5F0E0FF221283
:102ECB002A8712284FE4F5099000D3F022EEF0A3E5
:102EDB00EFF0AF05A3ECF0A3EFF022C2CDD2CCD232
:102EEB00AF904061E04440F022C28CD28BC2BDC295
:102EFB00BCD2AAD2AF229040A0E4F0C2FF1222FEB5
:102F0B0022121C34122570020657904026E0440111
:082F1B00F022122CA902267B12
:00000001FF
